{
  "address": "0x85C0ed4970bf6Fe4C8D4F0033B60566e4464c6b5",
  "abi": [
    {
      "anonymous": false,
      "inputs": [
        {
          "indexed": false,
          "internalType": "address",
          "name": "tokenAddress",
          "type": "address"
        }
      ],
      "name": "WrappedRuneDeployed",
      "type": "event"
    },
    {
      "inputs": [
        {
          "internalType": "string",
          "name": "_name",
          "type": "string"
        },
        {
          "internalType": "string",
          "name": "_ticker",
          "type": "string"
        },
        {
          "internalType": "uint256",
          "name": "_supply",
          "type": "uint256"
        }
      ],
      "name": "deployWrappedRune",
      "outputs": [
        {
          "internalType": "address",
          "name": "",
          "type": "address"
        }
      ],
      "stateMutability": "nonpayable",
      "type": "function"
    },
    {
      "inputs": [],
      "name": "wrappedRuneCount",
      "outputs": [
        {
          "internalType": "uint256",
          "name": "",
          "type": "uint256"
        }
      ],
      "stateMutability": "view",
      "type": "function"
    },
    {
      "inputs": [
        {
          "internalType": "uint256",
          "name": "",
          "type": "uint256"
        }
      ],
      "name": "wrappedRunes",
      "outputs": [
        {
          "internalType": "address",
          "name": "",
          "type": "address"
        }
      ],
      "stateMutability": "view",
      "type": "function"
    }
  ],
  "transactionHash": "0x21bb9e46e5d9450136a00b25ebe95a03f0396d739741a1102c1d402e5c578487",
  "args": [],
  "numDeployments": 3,
  "solcInputHash": "be48f046f5c4c727b784e107544e2648",
  "bytecode": "0x608060405234801561001057600080fd5b50611de6806100206000396000f3fe60806040523480156200001157600080fd5b5060043610620000465760003560e01c80632407f176146200004b578063626bed8b146200007f578063a5acd7501462000096575b600080fd5b620000626200005c3660046200024d565b620000af565b6040516001600160a01b0390911681526020015b60405180910390f35b6200006262000090366004620002b3565b620000da565b620000a060015481565b60405190815260200162000076565b60008181548110620000c057600080fd5b6000918252602090912001546001600160a01b0316905081565b6000808686868686604051620000f0906200023f565b6200010095949392919062000357565b604051809103906000f0801580156200011d573d6000803e3d6000fd5b5060405163a9059cbb60e01b8152336004820152602481018590529091506001600160a01b0382169063a9059cbb906044016020604051808303816000875af11580156200016f573d6000803e3d6000fd5b505050506040513d601f19601f8201168201806040525081019062000195919062000395565b5060008054600180820183558280527f290decd9548b62a8d60345a988386fc84ba6bc95484008f6362f93160ef3e56390910180546001600160a01b0319166001600160a01b038516179055805490918291620001f4908390620003c0565b90915550506040516001600160a01b03821681527f70bdd2a2e4a5b5505b2f0570a73f9d6e9b18ab51d7f6c4124e3c4ea61e5dca1d9060200160405180910390a19695505050505050565b6119c880620003e983390190565b6000602082840312156200026057600080fd5b5035919050565b60008083601f8401126200027a57600080fd5b50813567ffffffffffffffff8111156200029357600080fd5b602083019150836020828501011115620002ac57600080fd5b9250929050565b600080600080600060608688031215620002cc57600080fd5b853567ffffffffffffffff80821115620002e557600080fd5b620002f389838a0162000267565b909750955060208801359150808211156200030d57600080fd5b506200031c8882890162000267565b96999598509660400135949350505050565b81835281816020850137506000828201602090810191909152601f909101601f19169091010190565b6060815260006200036d6060830187896200032e565b8281036020840152620003828186886200032e565b9150508260408301529695505050505050565b600060208284031215620003a857600080fd5b81518015158114620003b957600080fd5b9392505050565b80820180821115620003e257634e487b7160e01b600052601160045260246000fd5b9291505056fe6101606040523480156200001257600080fd5b50604051620019c8380380620019c88339810160408190526200003591620003b2565b6040805180820190915260018152603160f81b60208201528390819081856003620000618382620004b3565b506004620000708282620004b3565b5062000082915083905060056200014b565b61012052620000938160066200014b565b61014052815160208084019190912060e052815190820120610100524660a0526200012160e05161010051604080517f8b73c3c69bb8fe3d512ecc4cf759cc79239f7b179b0ffacaa9a75d522b39400f60208201529081019290925260608201524660808201523060a082015260009060c00160405160208183030381529060405280519060200120905090565b60805250503060c05250620001363362000184565b620001423382620001d6565b505050620005fb565b60006020835110156200016b5762000163836200029d565b90506200017e565b81620001788482620004b3565b5060ff90505b92915050565b600980546001600160a01b038381166001600160a01b0319831681179093556040519116919082907f8be0079c531659141344cd1fd0a4f28419497f9722a3daafe3b4186f6b6457e090600090a35050565b6001600160a01b038216620002325760405162461bcd60e51b815260206004820152601f60248201527f45524332303a206d696e7420746f20746865207a65726f20616464726573730060448201526064015b60405180910390fd5b80600260008282546200024691906200057f565b90915550506001600160a01b038216600081815260208181526040808320805486019055518481527fddf252ad1be2c89b69c2b068fc378daa952ba7f163c4a11628f55a4df523b3ef910160405180910390a35050565b600080829050601f81511115620002cb578260405163305a27a960e01b8152600401620002299190620005a1565b8051620002d882620005d6565b179392505050565b505050565b634e487b7160e01b600052604160045260246000fd5b60005b8381101562000318578181015183820152602001620002fe565b50506000910152565b600082601f8301126200033357600080fd5b81516001600160401b0380821115620003505762000350620002e5565b604051601f8301601f19908116603f011681019082821181831017156200037b576200037b620002e5565b816040528381528660208588010111156200039557600080fd5b620003a8846020830160208901620002fb565b9695505050505050565b600080600060608486031215620003c857600080fd5b83516001600160401b0380821115620003e057600080fd5b620003ee8783880162000321565b945060208601519150808211156200040557600080fd5b50620004148682870162000321565b925050604084015190509250925092565b600181811c908216806200043a57607f821691505b6020821081036200045b57634e487b7160e01b600052602260045260246000fd5b50919050565b601f821115620002e057600081815260208120601f850160051c810160208610156200048a5750805b601f850160051c820191505b81811015620004ab5782815560010162000496565b505050505050565b81516001600160401b03811115620004cf57620004cf620002e5565b620004e781620004e0845462000425565b8462000461565b602080601f8311600181146200051f5760008415620005065750858301515b600019600386901b1c1916600185901b178555620004ab565b600085815260208120601f198616915b8281101562000550578886015182559484019460019091019084016200052f565b50858210156200056f5787850151600019600388901b60f8161c191681555b5050505050600190811b01905550565b808201808211156200017e57634e487b7160e01b600052601160045260246000fd5b6020815260008251806020840152620005c2816040850160208701620002fb565b601f01601f19169190910160400192915050565b805160208083015191908110156200045b5760001960209190910360031b1b16919050565b60805160a05160c05160e05161010051610120516101405161137262000656600039600061042e0152600061040301526000610b3f01526000610b1701526000610a7201526000610a9c01526000610ac601526113726000f3fe608060405234801561001057600080fd5b50600436106101215760003560e01c8063715018a6116100ad578063a457c2d711610071578063a457c2d71461024d578063a9059cbb14610260578063d505accf14610273578063dd62ed3e14610286578063f2fde38b1461029957600080fd5b8063715018a6146101f45780637ecebe00146101fc57806384b0196e1461020f5780638da5cb5b1461022a57806395d89b411461024557600080fd5b8063313ce567116100f4578063313ce5671461018c5780633644e5151461019b57806339509351146101a357806340c10f19146101b657806370a08231146101cb57600080fd5b806306fdde0314610126578063095ea7b31461014457806318160ddd1461016757806323b872dd14610179575b600080fd5b61012e6102ac565b60405161013b91906110de565b60405180910390f35b610157610152366004611114565b61033e565b604051901515815260200161013b565b6002545b60405190815260200161013b565b61015761018736600461113e565b610358565b6040516012815260200161013b565b61016b61037c565b6101576101b1366004611114565b61038b565b6101c96101c4366004611114565b6103ad565b005b61016b6101d936600461117a565b6001600160a01b031660009081526020819052604090205490565b6101c96103c3565b61016b61020a36600461117a565b6103d7565b6102176103f5565b60405161013b9796959493929190611195565b6009546040516001600160a01b03909116815260200161013b565b61012e61047e565b61015761025b366004611114565b61048d565b61015761026e366004611114565b61050d565b6101c961028136600461122b565b61051b565b61016b61029436600461129e565b61067f565b6101c96102a736600461117a565b6106aa565b6060600380546102bb906112d1565b80601f01602080910402602001604051908101604052809291908181526020018280546102e7906112d1565b80156103345780601f1061030957610100808354040283529160200191610334565b820191906000526020600020905b81548152906001019060200180831161031757829003601f168201915b5050505050905090565b60003361034c818585610723565b60019150505b92915050565b600033610366858285610847565b6103718585856108c1565b506001949350505050565b6000610386610a65565b905090565b60003361034c81858561039e838361067f565b6103a89190611305565b610723565b6103b5610b90565b6103bf8282610bea565b5050565b6103cb610b90565b6103d56000610ca9565b565b6001600160a01b038116600090815260076020526040812054610352565b6000606080828080836104297f00000000000000000000000000000000000000000000000000000000000000006005610cfb565b6104547f00000000000000000000000000000000000000000000000000000000000000006006610cfb565b60408051600080825260208201909252600f60f81b9b939a50919850469750309650945092509050565b6060600480546102bb906112d1565b6000338161049b828661067f565b9050838110156105005760405162461bcd60e51b815260206004820152602560248201527f45524332303a2064656372656173656420616c6c6f77616e63652062656c6f77604482015264207a65726f60d81b60648201526084015b60405180910390fd5b6103718286868403610723565b60003361034c8185856108c1565b8342111561056b5760405162461bcd60e51b815260206004820152601d60248201527f45524332305065726d69743a206578706972656420646561646c696e6500000060448201526064016104f7565b60007f6e71edae12b1b97f4d1f60370fef10105fa2faae0126114a169c64845d6126c988888861059a8c610da6565b6040805160208101969096526001600160a01b0394851690860152929091166060840152608083015260a082015260c0810186905260e00160405160208183030381529060405280519060200120905060006105f582610dce565b9050600061060582878787610dfb565b9050896001600160a01b0316816001600160a01b0316146106685760405162461bcd60e51b815260206004820152601e60248201527f45524332305065726d69743a20696e76616c6964207369676e6174757265000060448201526064016104f7565b6106738a8a8a610723565b50505050505050505050565b6001600160a01b03918216600090815260016020908152604080832093909416825291909152205490565b6106b2610b90565b6001600160a01b0381166107175760405162461bcd60e51b815260206004820152602660248201527f4f776e61626c653a206e6577206f776e657220697320746865207a65726f206160448201526564647265737360d01b60648201526084016104f7565b61072081610ca9565b50565b6001600160a01b0383166107855760405162461bcd60e51b8152602060048201526024808201527f45524332303a20617070726f76652066726f6d20746865207a65726f206164646044820152637265737360e01b60648201526084016104f7565b6001600160a01b0382166107e65760405162461bcd60e51b815260206004820152602260248201527f45524332303a20617070726f766520746f20746865207a65726f206164647265604482015261737360f01b60648201526084016104f7565b6001600160a01b0383811660008181526001602090815260408083209487168084529482529182902085905590518481527f8c5be1e5ebec7d5bd14f71427d1e84f3dd0314c0f7b2291e5b200ac8c7c3b925910160405180910390a3505050565b6000610853848461067f565b905060001981146108bb57818110156108ae5760405162461bcd60e51b815260206004820152601d60248201527f45524332303a20696e73756666696369656e7420616c6c6f77616e636500000060448201526064016104f7565b6108bb8484848403610723565b50505050565b6001600160a01b0383166109255760405162461bcd60e51b815260206004820152602560248201527f45524332303a207472616e736665722066726f6d20746865207a65726f206164604482015264647265737360d81b60648201526084016104f7565b6001600160a01b0382166109875760405162461bcd60e51b815260206004820152602360248201527f45524332303a207472616e7366657220746f20746865207a65726f206164647260448201526265737360e81b60648201526084016104f7565b6001600160a01b038316600090815260208190526040902054818110156109ff5760405162461bcd60e51b815260206004820152602660248201527f45524332303a207472616e7366657220616d6f756e7420657863656564732062604482015265616c616e636560d01b60648201526084016104f7565b6001600160a01b03848116600081815260208181526040808320878703905593871680835291849020805487019055925185815290927fddf252ad1be2c89b69c2b068fc378daa952ba7f163c4a11628f55a4df523b3ef910160405180910390a36108bb565b6000306001600160a01b037f000000000000000000000000000000000000000000000000000000000000000016148015610abe57507f000000000000000000000000000000000000000000000000000000000000000046145b15610ae857507f000000000000000000000000000000000000000000000000000000000000000090565b610386604080517f8b73c3c69bb8fe3d512ecc4cf759cc79239f7b179b0ffacaa9a75d522b39400f60208201527f0000000000000000000000000000000000000000000000000000000000000000918101919091527f000000000000000000000000000000000000000000000000000000000000000060608201524660808201523060a082015260009060c00160405160208183030381529060405280519060200120905090565b6009546001600160a01b031633146103d55760405162461bcd60e51b815260206004820181905260248201527f4f776e61626c653a2063616c6c6572206973206e6f7420746865206f776e657260448201526064016104f7565b6001600160a01b038216610c405760405162461bcd60e51b815260206004820152601f60248201527f45524332303a206d696e7420746f20746865207a65726f20616464726573730060448201526064016104f7565b8060026000828254610c529190611305565b90915550506001600160a01b038216600081815260208181526040808320805486019055518481527fddf252ad1be2c89b69c2b068fc378daa952ba7f163c4a11628f55a4df523b3ef910160405180910390a35050565b600980546001600160a01b038381166001600160a01b0319831681179093556040519116919082907f8be0079c531659141344cd1fd0a4f28419497f9722a3daafe3b4186f6b6457e090600090a35050565b606060ff8314610d1557610d0e83610e23565b9050610352565b818054610d21906112d1565b80601f0160208091040260200160405190810160405280929190818152602001828054610d4d906112d1565b8015610d9a5780601f10610d6f57610100808354040283529160200191610d9a565b820191906000526020600020905b815481529060010190602001808311610d7d57829003601f168201915b50505050509050610352565b6001600160a01b03811660009081526007602052604090208054600181018255905b50919050565b6000610352610ddb610a65565b8360405161190160f01b8152600281019290925260228201526042902090565b6000806000610e0c87878787610e62565b91509150610e1981610f26565b5095945050505050565b60606000610e3083611070565b604080516020808252818301909252919250600091906020820181803683375050509182525060208101929092525090565b6000807f7fffffffffffffffffffffffffffffff5d576e7357a4501ddfe92f46681b20a0831115610e995750600090506003610f1d565b6040805160008082526020820180845289905260ff881692820192909252606081018690526080810185905260019060a0016020604051602081039080840390855afa158015610eed573d6000803e3d6000fd5b5050604051601f1901519150506001600160a01b038116610f1657600060019250925050610f1d565b9150600090505b94509492505050565b6000816004811115610f3a57610f3a611326565b03610f425750565b6001816004811115610f5657610f56611326565b03610fa35760405162461bcd60e51b815260206004820152601860248201527f45434453413a20696e76616c6964207369676e6174757265000000000000000060448201526064016104f7565b6002816004811115610fb757610fb7611326565b036110045760405162461bcd60e51b815260206004820152601f60248201527f45434453413a20696e76616c6964207369676e6174757265206c656e6774680060448201526064016104f7565b600381600481111561101857611018611326565b036107205760405162461bcd60e51b815260206004820152602260248201527f45434453413a20696e76616c6964207369676e6174757265202773272076616c604482015261756560f01b60648201526084016104f7565b600060ff8216601f81111561035257604051632cd44ac360e21b815260040160405180910390fd5b6000815180845260005b818110156110be576020818501810151868301820152016110a2565b506000602082860101526020601f19601f83011685010191505092915050565b6020815260006110f16020830184611098565b9392505050565b80356001600160a01b038116811461110f57600080fd5b919050565b6000806040838503121561112757600080fd5b611130836110f8565b946020939093013593505050565b60008060006060848603121561115357600080fd5b61115c846110f8565b925061116a602085016110f8565b9150604084013590509250925092565b60006020828403121561118c57600080fd5b6110f1826110f8565b60ff60f81b881681526000602060e0818401526111b560e084018a611098565b83810360408501526111c7818a611098565b606085018990526001600160a01b038816608086015260a0850187905284810360c0860152855180825283870192509083019060005b81811015611219578351835292840192918401916001016111fd565b50909c9b505050505050505050505050565b600080600080600080600060e0888a03121561124657600080fd5b61124f886110f8565b965061125d602089016110f8565b95506040880135945060608801359350608088013560ff8116811461128157600080fd5b9699959850939692959460a0840135945060c09093013592915050565b600080604083850312156112b157600080fd5b6112ba836110f8565b91506112c8602084016110f8565b90509250929050565b600181811c908216806112e557607f821691505b602082108103610dc857634e487b7160e01b600052602260045260246000fd5b8082018082111561035257634e487b7160e01b600052601160045260246000fd5b634e487b7160e01b600052602160045260246000fdfea264697066735822122037751f5707ae9e0a9cc4a49f0a3a54302b7b195dc73e1fd79d422278ad4b895e64736f6c63430008140033a2646970667358221220cd46cd91b7b54c53ecceb91de2964b768b83ecb07785693ab4b21a634fbe5ab164736f6c63430008140033",
  "devdoc": {
    "kind": "dev",
    "methods": {},
    "version": 1
  },
  "userdoc": {
    "kind": "user",
    "methods": {},
    "version": 1
  },
  "storageLayout": {
    "storage": [
      {
        "astId": 3282,
        "contract": "contracts/WrappedRune.sol:WrappedRuneFactory",
        "label": "wrappedRunes",
        "offset": 0,
        "slot": "0",
        "type": "t_array(t_address)dyn_storage"
      },
      {
        "astId": 3284,
        "contract": "contracts/WrappedRune.sol:WrappedRuneFactory",
        "label": "wrappedRuneCount",
        "offset": 0,
        "slot": "1",
        "type": "t_uint256"
      }
    ],
    "types": {
      "t_address": {
        "encoding": "inplace",
        "label": "address",
        "numberOfBytes": "20"
      },
      "t_array(t_address)dyn_storage": {
        "base": "t_address",
        "encoding": "dynamic_array",
        "label": "address[]",
        "numberOfBytes": "32"
      },
      "t_uint256": {
        "encoding": "inplace",
        "label": "uint256",
        "numberOfBytes": "32"
      }
    }
  }
}